:020000040800F2
:1000000000000220E5050008E1050008255200086F
:10001000E1050008E1050008E10500080000000016
:10002000000000000000000000000000E1050008E2
:10003000E105000800000000E10500081552000875
:10004000E1050008E1050008E1050008E1050008F8
:10005000E1050008E1050008E1050008E1050008E8
:10006000E1050008E1050008E1050008593A00082B
:10007000653A00085D2C0008713A00087D3A0008D6
:10008000D94F0008C5D00008E1050008E1050008C7
:10009000E1050008E1050008E1050008E1050008A8
:1000A000E1050008E1050008E1050008E105000898
:1000B000E1050008E1050008E1050008F9D00008A5
:1000C000E105000805D10008E1050008E105000888
:1000D000E1050008AD490008594A0008094B00082D
:1000E000E1050008E105000800000000E105000846
:1000F000E1050008E1050008E1050008E105000848
:10010000E1050008E1050008E1050008E105000837
:10011000B94B0008694C0008312F0008E1050008C0
:10012000192F0008252F0008E1050008E105000847
:10013000E1050008E1050008E1050008E105000807
:1001400000000000000000000000000000000000AF
:10015000E1050008E1050008E1050008194D000867
:1001600011D10008E1050008E1050008E1050008DB
:10017000E1050008E1050008E1050008E1050008C7
:10018000E1050008E1050008C94D0008794E0008A6
:10019000E1050008E1050008E1050008E1050008A7
:1001A000E1050008E1050008E1050008E105000897
:1001B000A1370008E1050008E1050008E105000895
:1001C000E1050008E1050008E1050008E105000877
:1001D000E1050008E1050008E1050008E105000867
:1001E000E1050008E1050008E1050008E105000857
:1001F000E1050008E1050008E1050008E105000847
:10020000E1050008E1050008E1050008E105000836
:10021000E1050008E1050008E1050008E105000826
:10022000E1050008E1050008E10500080000000004
:10023000E1050008E105000800000000E1050008F4
:10024000E1050008E1050008E1050008E1050008F6
:10025000E1050008E1050008E1050008E1050008E6
:10026000E1050008E1050008E1050008E1050008D6
:10027000E1050008E1050008294F00080000000022
:10028000E1050008E1050008E105000800000000A4
:0802900000000000E105000878
:1002980010B5054C237833B9044B13B10448AFF3B8
:1002A80000800123237010BD6802002400000000B4
:1002B800A8DC000808B5034B1BB103490348AFF39A
:1002C800008008BD000000006C020024A8DC0008C3
:1002D800034613F8012B002AFBD1181A013870477E
:1002E80053B94AB9002908BF00281CBF4FF0FF3195
:1002F8004FF0FF3000F06EB9ADF1080C6DE904CE97
:1003080000F006F8DDF804E0DDE9022304B07047E8
:100318002DE9F047089D04468C46002B40F0838069
:100328008A42174647D9B2FA82F242B1C2F1200096
:1003380024FA00F09140974040EA010C94404FEABB
:100348001748230CBCFBF8F61FFA87FE08FB16C1FA
:1003580043EA014306FB0EF1994209D9FB1806F15D
:10036800FF3080F01981994240F21681023E3B44E9
:100378005B1AA4B2B3FBF8F008FB103344EA034459
:1003880000FB0EFEA64509D93C1900F1FF3380F0A9
:100398000581A64540F2028102383C4440EA064005
:1003A800A4EB0E0400261DB1D4400023C5E9004388
:1003B8003146BDE8F08702B9FFDEB2FA82F2002AC0
:1003C80050D1CB1B4FEA174E1FFA87F80126B3FB13
:1003D800FEFC210C0EFB1C3341EA034108FB0CF325
:1003E8008B4207D979180CF1FF3002D28B4200F208
:1003F800E9808446C91AA3B2B1FBFEF00EFB1011C6
:1004080043EA014408FB00F8A04507D93C1900F16C
:10041800FF3302D2A04500F2D9801846A4EB0804A5
:1004280040EA0C40BFE78B4209D9002D00F0B180AB
:100438000026C5E9000130463146BDE8F087B3FA29
:1004480083F6002E4AD18B4202D3824200F2B88052
:10045800841A61EB030101208C46002DA8D0C5E960
:10046800004CA5E7C2F1200320FA03F6974001FAF1
:1004780002F04FEA174ED9403043030CB1FBFEF6A9
:100488001FFA87F80EFB161143EA014306FB08F131
:10049800994204FA02F409D9FB1806F1FF3C80F0EE
:1004A8008D80994240F28A80023E3B445B1A81B2B9
:1004B800B3FBFEF00EFB103341EA034100FB08F3E7
:1004C8008B4207D9791800F1FF3C73D28B4271D95E
:1004D80002383944CB1A40EA064678E7C6F1200CC0
:1004E80003FA06F422FA0CF31C4320FA0CF701FA7B
:1004F80006F34FEA144E21FA0CF11F433B0CB1FBF3
:10050800FEF91FFA84F80EFB191143EA014109FBB1
:1005180008FA8A4502FA06F200FA06F308D96118C1
:1005280009F1FF3048D28A4546D9A9F10209214488
:10053800A1EB0A01BFB2B1FBFEF00EFB101147EAB6
:10054800014700FB08F8B84507D9E71900F1FF3162
:100558002ED2B8452CD90238274440EA0940A7EBE7
:100568000807A0FB02894F45C64649461AD317D04B
:100578005DB1B3EB0E0267EB010707FA0CFCF24022
:100588004CEA0202F740C5E9002700263146BDE8DB
:10059800F0872E4628460BE70646E9E61846FDE6AC
:1005A8004345E5D2B8EB020E69EB04010138DFE7F9
:1005B8000846D2E760468DE78146B9E7664675E7A3
:1005C80030464AE7ACF1020C394413E702383C44A0
:1005D80024E700BF704700BFFEE700BF0D4B0E4A7F
:1005E800934206D00D4951F8040B43F8040B93428B
:1005F800F9D10B4B0B4A934204D0002143F8041B5A
:100608009342FBD104F08CFF0DF00AF800F07CF95E
:10061800FEE700BF0000002468020024D0DC0008C8
:1006280068020024E8BA0024704700BF10B50446E9
:10063800806908B10CF0DDFE204610BDF0B54448D5
:1006480083B000F0F3F9434C414800F009FA002167
:100658003F4800F0FFF9A669E76901A8BD1BAD1086
:1006680007EE905AF8EE677A27EE800A0CF090FFB2
:10067800DDED017A6B1EFCEEE77A17EE901A9942CF
:1006880048D357ED017A01213148C4ED037A00F0CF
:10069800E1F901A8D4E90667BD1BAD1007EE905A31
:1006A800F8EE677A27EE800A0CF072FFDDED017A2A
:1006B8006B1EFCEEE77A17EE901A99423ED28D42F5
:1006C80042D906EB810601318D42D6ED006A3BD94D
:1006D800B7EE007AD6ED017A60EE277A37EE400A57
:1006E800E6EE807A1C48C4ED047A01F03FFE78B14A
:1006F800D4ED057A00230022F5EEC07A2370F1EEDE
:1007080010FA1EDD94ED037A67EE277AC4ED027ABB
:1007180003B0F0BD8D4217D906EB810601318D4239
:10072800D6ED006A10D9B7EE007AD6ED017A60EE00
:10073800277A37EE400AE6EE807AA4E757ED017A89
:10074800D0E7A26003B0F0BD2A4604480CF067FE6B
:10075800A802002484020024A403002484D90008E9
:100768002DE9F041174606468846FFF767FF002F38
:100778003FD075684FF0000C614B306805EB870778
:100788001C78D8E9002613E0002C6ED0B0EC017A72
:10079800D3ED057A67EE877AE2EC017A93ED057A74
:1007A800F5EC017A67EE877ABD42E6EC017A1CD057
:1007B800012C20D0022CE7D19FED527A83ED057AE7
:1007C800F0EC017A67EE877AE2EC017ADFED4D7A98
:1007D8000224B0EE677AC3ED057AF5EC017A67EE8C
:1007E800877ABD42E6EC017AE2D1BCF1000F00D075
:1007F8001C70BDE8F08193ED027AF7EE007A93ED74
:10080800016AD3ED046A37EE067A87EE266A83ED2D
:10081800027AB4EEE67AF1EE10FA77EEC67AC3ED14
:10082800057A62DAB0EC017A67EE877AE2EC017A4F
:10083800D3ED026AF7EE007A93ED017A93ED046A3C
:1008480076EE876A86EE867AC3ED026AF4EEC66AA9
:10085800F1EE10FA37EEC77A83ED057A43DB002113
:100868004FF0010C022499609AE7D3ED027A93EDD8
:10087800017AD3ED036A77EE877A87EEA67AC3ED1D
:10088800027AF4EEE67AF1EE10FA83ED057A0ADBE5
:1008980000214FF0010C9960F0EC017A67EE877A3D
:1008A800E2EC017AC4E7F0EC017A67EE877AE2ECD1
:1008B800017AD3ED027A93ED017AD3ED036A77EEEC
:1008C800877A87EEA67AC3ED027AF4EEE67AF1EE3D
:1008D80010FA83ED057AFFF663AF00214FF0010CA3
:1008E800996064465CE701245AE70021A4469960B0
:1008F800B0EC017A67EE877AE2EC017A66E700BF2E
:10090800840200240000000000210C4808B500F013
:10091800EFFA0A4800F084F8B7EE007A084B094A63
:10092800C7EE007A054882ED000AC3ED017A00F0AF
:1009380079F80549014800F071F8FEE7A80200249B
:10094800840200246894002469070008F8B5294B3C
:100958000025294849F2B012198849F2B2169B8835
:1009680049F2AC1449F2B41E8152244F49F2B8122C
:10097800DFF8A4C049F2BC11835349F2BE130551F4
:100988004FF60F06072440F80E5040F802C03A46CA
:1009980046520226C4541A491A4C45610562C0F8E9
:1009A80004510CF021FD0022174B1C20174926701A
:1009B800174E25626160A2606261E3602361C4E949
:1009C80006550CF018FD05460FCE286005F11C00F1
:1009D8006960AA60A561EB60C4E9070007CE2861D9
:1009E80020466961AA613A460A49BDE8F8400CF018
:1009F800FBBC00BF14D90008A80200240000002492
:100A08003106000884020024CDCCCC3DC637BE3761
:100A1800D0D900083506000880707FF000F03CBB94
:100A280000F03EBB183002F0A7B800BF10B504466E
:100A38005C3001F019FC04F17C0001F015FC04F1B4
:100A48009C0001F011FC04F1BC00BDE8104001F06D
:100A58000BBC00BF00EB411191ED1A0A704700BFB3
:100A68003C3001F04BBC00BF2DE9F04332499DB04A
:100A780004464FF441700991012100220123032605
:100A88000127129100252D494FF001084FF0000968
:100A9800ADF82C001B200A910895CDE90E23CDE96D
:100AA8001023CDE91A23CDE90C67CDE91667CDE906
:100AB800188900F0DBFA034618204FF07C57ADF890
:100AC8004E3000F0D3FA03461C203026ADF84C30E7
:100AD80000F0CCFA03461920ADF8503000F0C6FA01
:100AE80003461A20ADF8543000F0C0FA0022002363
:100AF800054608A902A8ADF852500325CDE90223FE
:100B080003F032F812A903A803F02EF81D2000F014
:100B1800ADFAADF80400019800F040FB05A904F116
:100B280014000797DDE90223CDE9056501F00CFB08
:100B38001DB0BDE8F08300BF0402040404050406E8
:100B4800F0B506460F20002406F1180706F15C05EB
:100B58002DED028B99B09FED258A00F087FA0346A8
:100B680007A8ADF80C30039901F056FC102000F0EE
:100B78007DFA03460DF12D00ADF81030049901F00F
:100B88004BFC152000F072FA03460DF13E00ADF85B
:100B98001430059901F040FC122000F067FA034672
:100BA8000DF14F00ADF81830069901F035FC04231B
:100BB80007A938461A4601F03DFCE1B2384601F073
:100BC800F1FF014601343046019100F06DFA2846E4
:100BD800F0EE480A002301990122203501F026FB96
:100BE800042CEAD119B0BDEC028BF0BD6F12033BA7
:100BF8002DE9F04106468CB0092049F2AC1400F00A
:100C080035FA034634441E20ADF8003000F02EFAC1
:100C1800ADF8020001252646009BA572A04626F8DD
:100C2800083F3046019302F041FABDF8063000272C
:100C3800A57128F8043F404602F038FA0022002344
:100C48004FF0080C02A92046CDF81CC00695CDE946
:100C58000423CDE9082302220223CDE90A23A2A313
:100C6800D3E90023CDE9022303F094FA394640463C
:100C780002F006FB0A2004F0D5FA2946404602F0A5
:100C8800FFFA0A2004F0CEFAAE23304639468DF832
:100C9800083002F0F5FA2A4602A92046642303F038
:100CA800FDFAD523304639468DF8083002F0E8FAC7
:100CB8002A4602A92046642303F0F0FA802330462E
:100CC80039468DF8083002F0DBFA2A4602A9204698
:100CD800642303F0E3FAA823304639468DF8083038
:100CE80002F0CEFA2A4602A92046642303F0D6FA77
:100CF8003F23304639468DF8083002F0C1FA2A46BB
:100D080002A92046642303F0C9FADA23304639469B
:100D18008DF8083002F0B4FA2A4602A92046642366
:100D280003F0BCFA1223304639468DF8083002F039
:100D3800A7FA2A4602A92046642303F0AFFAD32370
:100D4800304639468DF8083002F09AFA2A4602A948
:100D58006423204603F0A2FA304639468DF808701D
:100D680002F08EFA2A4602A92046642303F096FA76
:100D78004023304639468DF8083002F081FA2A4679
:100D880002A92046642303F089FAA623304639468F
:100D98008DF8083002F074FA2A4602A92046642326
:100DA80003F07CFAA423304639468DF8083002F067
:100DB80067FA2A4602A92046642303F06FFA8D23B6
:100DC800304639468DF8083002F05AFA2A4602A908
:100DD8002046642303F062FA1423304639468DF81E
:100DE800083002F04DFA2A4602A92046642303F08F
:100DF80055FAA123304639468DF8083002F040FAFA
:100E08002A4602A92046642303F048FAC82330463C
:100E180039468DF8083002F033FA2A4602A92046EE
:100E2800642303F03BFA8123304639468DF80830B5
:100E380002F026FA2A4602A92046642303F02EFA75
:100E48008F23304639468DF8083002F019FA2A46C1
:100E580002A92046642303F021FAD92330463946F3
:100E68008DF8083002F00CFA2A4602A920466423BD
:100E780003F014FA2523304639468DF8083002F07D
:100E8800FFF92A4602A92046642303F007FADB2368
:100E9800304639468DF8083002F0F2F92A4602A9A0
:100EA8002046642303F0FAF93423304639468DF896
:100EB800083002F0E5F92A4602A92046642303F027
:100EC800EDF9AF23304639468DF8083002F0D8F9ED
:100ED8002A4602A96423204603F0E0F90CB0BDE8D5
:100EE800F08100BFAFF30080060B0B000105060A76
:100EF8002DE9F04304468DB000250126019100F04C
:100F080095F80199204600F00BF904F120092046D4
:100F18000227FFF7A9FD2046FFF76AFE05A9484604
:100F280049F2B858CDE90865CDE9067502F00AF826
:100F38002A463946484602F081F80C2000F096F817
:100F480003460B20ADF8103000F090F80346284611
:100F5800ADF80C3000F08AF803462046ADF80830AA
:100F680000F0A2F8049904F13C00DDE9023201F036
:100F78009FF9112000F07AF804EB080249F2BA53FD
:100F880024F808001046E65202F090F8142000F009
:100F98006DF8034605A904F1DC00ADF8143001F042
:100FA800DDF9132000F062F8034605A904F1E20018
:100FB800ADF8143001F0D2F92046FFF719FE49F2D6
:100FC800901349F2941CDFF860E049F29810E5505C
:100FD800144A47F6122344F80CE005A92044059268
:100FE8000B930A96CDE90656CDE9085703F0F6FFAC
:100FF80049F2841149F280120A2384F8EC50204601
:101008006550A55084F8F030FFF79AFD49F2C053B7
:101018001122E25004F004F949F2BC53E0500DB03B
:10102800BDE8F08301060107010701060B4A40F2FB
:1010380007110B4B02604FF4877243600623C1848B
:101048004285037480F8293070B40224054E064D99
:1010580080F82540C0E9026570BC704700070500AC
:10106800010508050905070506050A061F2882B0B7
:1010780009D8084B03EB400213F81030507843EAC4
:10108800002002B0704701230C2043EA002002B080
:10109800704700BFECD90008143001F09DB800BFBC
:1010A800143001F095B800BF90ED0E0A704700BFEC
:1010B800F0B51A4D91B000210446079505F1007569
:1010C8004FF44170002201230326012705F54075DE
:1010D8000691029106A9ADF8240002A808953025CA
:1010E800CDE90C23CDE90E23CDE90A6702F03CFDDA
:1010F80040F601334FF07E56ADF80430019800F009
:101108004DF80323029A03A904F114000596CDE9CA
:10111800035300F0E5FF11B0F0BD00BF0402040462
:1011280030B504462DED028B83B089B3012240F21D
:1011380001130092ADF80430694604F1300004F060
:1011480055F9204600F04CF8E01C02F0ABF804F129
:10115800250001F0ABFF04F1140504F1290001F0AA
:10116800A5FF2046FFF7A4FF284601F031F82846DE
:10117800B0EE408A01F028F8D0ED007AF8EE677AF0
:1011880088EE277A84ED0E7A03B0BDEC028B30BD71
:1011980040F201130091ADF80430CDE710B584B0EA
:1011A80003460124ADF8040003A8ADF80C30ADF8EF
:1011B8000E4001F07BFF214603A802F061F82046AB
:1011C80004F030F803A8002102F05AF8204604F091
:1011D80029F8214603A802F053F804B010BD00BF57
:1011E8002DE9F043444C8BB0A063037823B100256C
:1011F80028460BB0BDE8F083404A0A2300260127A1
:10120800626008220893202302A9201DC4E902670E
:10121800C4E9042340264FF4C07700224FF400634A
:10122800C4E90667C4E908234FF480560027022260
:101238000723C4E90A67CDE9022304260322002311
:101248000827CDE90623CDE9046709F0D7FB054651
:1012580000284CD14FF001084FF010090126002753
:1012680002A94FF480520190201DCDE902894FF068
:1012780002084FF01009CDE9046709F0E9FB642082
:1012880004F0AEFA02A94FF48052201DCDE904679C
:10129800CDE9028904264FF003084FF01009002712
:1012A80009F0D6FB02A94FF48052201DCDE904674E
:1012B800CDE9028909F0CCFB40F232234FF0010C52
:1012C800042601931027019B02A94FF48052201D88
:1012D800CDE904C3CDE9026709F0BAFB201D40F649
:1012E800060109F0D5FB28460BB0BDE8F0830125BF
:1012F80028460BB0BDE8F0837094002440410052AA
:10130800694A2DE9F04315688FB015B10FB0BDE8F3
:10131800F083664B01210C24002611600327D3F8C3
:10132800D4204FF683784FF0020908A942F480527E
:101338005F48C3F8D420D3F8D42002F48052009236
:10134800009AD3F8E02042F01002C3F8E020D3F866
:10135800E02002F010020192019AD3F8E02042F056
:101368004002C3F8E020D3F8E02002F040020292E5
:10137800029AD3F8E02042F00802C3F8E020D3F83C
:10138800E02002F008020392039AD3F8E02042F426
:101398008072C3F8E020D3F8E02002F4807204924F
:1013A800049AD3F8E02042F08002C3F8E020D3F892
:1013B800E02002F080020592059AD3F8E02042F07E
:1013C8002002C3F8E020D3F8E02002F020020692C1
:1013D800069AD3F8E02042F00402C3F8E020D3F8DC
:1013E800E0300C9403F004030793079BCDE90A67E8
:1013F800CDE9088906F0D4F948F23712022308A982
:101408002C480C94DFF8C080CDE90A67CDE90823A1
:1014180006F0C6F94CF20372022308A926480C9478
:10142800CDE90A67CDE9082306F0BAF940F2FF6270
:10143800022308A921480C94CDE90A67CDE90823BD
:1014480006F0AEF94FF60C72022308A91C480C945A
:10145800CDE90A67CDE9082306F0A2F94FF63F0265
:10146800022308A917480C94CDE90823CDE90A6797
:1014780006F096F9D8F83800013004F091F8D8F859
:1014880038300646581C04F093F802220746032316
:1014980008A930460C9408970B93CDE9092506F066
:1014A8007FF90FB0BDE8F0836C9400240044025823
:1014B8000010025800180258000C02580020025868
:1014C800001C025800140258709400242DE9F04FB3
:1014D800DFF8288406460D46144608F114002DED61
:1014E800028B89B000AF02F02FFCD8F814305BB340
:1014F800D8F818304269002B0BBF022304234FF0A1
:1015080008094FF01009FB61D8F804304BB3A1006B
:10151800E946012A01F1070121F00701ADEB010DB0
:101528006846ADEB010D694600F04281022A00F0E1
:10153800DB80002A74D022469847CD462437BD4622
:10154800BDEC028BBDE8F08FD8F81830002BF5D031
:1015580002234FF008094269FB61D8F80430002BD8
:10156800D5D1D8F80030BA617B61002BE6D06B4644
:10157800DA4808EE103A02F02FFC8646F869BA6994
:10158800022800F08E816B46C7F810903969A3EBEA
:10159800C4039D466300E946B3FBF0F3A9EBC40C12
:1015A800C7F8189009EB830AB869E546ADEB010D59
:1015B8000CEB8301EB46F9603969C7F810A00AEB18
:1015C800830AADEB010DCBF80000F9680AEB830044
:1015D800E94601EB8301CBF80C00386901EB830382
:1015E800C9F800C0CBE9010AF868C9E90213C9F8CB
:1015F8000400012A00F08283022A00F07C82002A7B
:1016080000F086816208494658467B69984718EE7B
:10161800103A24379D46BD46BDEC028BBDE8F08FDD
:10162800002C88D098ED0B6A864606F1040CDFED95
:10163800B66A36F922A00EF1080E07EE10AA3CF998
:1016480022A0023207EE90AAB8EEC77A9442F8EECA
:10165800E77A27EE267A67EEA67A27EE067A67EE0D
:10166800867A0EED027A4EED017AE2D8F9612246C9
:1016780098479B4EF9690020D8ED046A2B1D9FED11
:10168800A37A9FED986ADFED985A22E0F4EEC67AC5
:10169800F1EE10FAC0F2EF8447F6FE72D1ED017A4E
:1016A80045F8202066EEA77AF4EEC77AF1EE10FA34
:1016B80040F2F580F4EEC67AF1EE10FAC0F2FC843E
:1016C80047F6FE7243F820200230083184427FF644
:1016D80034AFD1ED007A66EEA77AF4EEC77AF1EE70
:1016E80010FAD3D83246D9E7002C3FF424AF98ED4E
:1016F8000B6A8646002206F1040CDFED7C6A06EBD5
:10170800820A0EF1080E9AED007A0CEB820A023278
:10171800DAED007AB8EEC77A9442F8EEE77A27EE67
:10172800267A67EEA67A27EE067A67EE867A0EEDB7
:10173800027A4EED017AE2D8F961224698476C4E5A
:10174800F9690020D8ED046A2B1D9FED707ADFF847
:10175800B0C19FED646A20E0F4EEC67AF1EE10FAAB
:10176800C0F2A2843246D1ED017A45F8202066EE17
:10177800A77AF4EEC77AF1EE10FA40F28E80F4EE12
:10178800C67AF1EE10FAC0F28784324643F8202078
:101798000230083184427FF6D0AED1ED007A66EE91
:1017A800A77AF4EEC77AF1EE10FAD5D86246DAE7EE
:1017B800002C3FF4C0AE06F1040CFD6198ED0B6AF5
:1017C8001D46834663464FF0000ADFED4A6AB44679
:1017D8005CF82A200BF1080B53F82A600AF1020A78
:1017E80082F4000286F4000E5445A2F5000207EECA
:1017F800102AAEF5000207EE902AB8EEC77AF8EE86
:10180800E77A27EE267A67EEA67A27EE067A67EE5B
:10181800867A0BED027A4BED017AD9D82B46FD6911
:101828002246F9619847344EF9690020D8ED046AD8
:101838002B1D9FED367ADFF8CCC09FED2A6A1FE09A
:10184800F4EEC67AF1EE10FAC0F21E843246D1EDFB
:10185800017A45F8202066EEA77AF4EEC77AF1EE11
:1018680010FA18D9F4EEC67AF1EE10FAC0F2FB833A
:10187800324643F820200230083184427FF65DAEBC
:10188800D1ED007A66EEA77AF4EEC77AF1EE10FA97
:10189800D6D86246DBE76246EBE7624676E7324631
:1018A80010E7A3006008073323F00703ADEB030D2F
:1018B800EC46ADEB030DEA46ADEB090D0CEB8003EE
:1018C800C7F818C0EB46ADEB090D0AEB80003B6189
:1018D800E946CBE900C3C9E900A08AE6C49400241C
:1018E8000280FFFF04FF7F3F00FEFF46000000303C
:1018F8000082FF7F0000003482FF7F00AC94002448
:10190800007E00807E0080FF0000003804FF7FBF5B
:10191800002C00F0EC82F969D8F82030022900F098
:101928001B8303EB8E0ADBF80C104FEA8E03C7F813
:1019380000B006F1040C5FED0C5A7B60DBF8083050
:10194800D7F818E0FB600AF10403C7F818909B4623
:10195800D7F81090B9603D613CF9221036F9223071
:1019680006EE901A3AF9221006EE103A98ED0B5A44
:1019780007EE101AF8EEE66AB8EEC66A3BF92210CE
:10198800B8EEC77A530807EE901A66EEA56A26EEF7
:10199800256AF96827EE257A09EB8300F8EEE77ADD
:1019A8000EEB830526EE056A01EB830127EE057A27
:1019B800023266EE856A67EEA57A85ED006A944282
:1019C800C0ED006A81ED007A98ED0B7AB86867EE91
:1019D800877A00EB8303C3ED007ABDD8D7F800B04F
:1019E800D7F818903D69620849467B695846984778
:1019F800D8F8283079680022D8ED046A1944D9F853
:101A080000E0D9F804C02B1D01F104088A461FED37
:101A1800417AC7F81880B14E9FEDB16ADFEDB15A2F
:101A2800D7F81C8052E0F4EEC67AF1EE10FAC0F254
:101A3800DC8247F6FE7B0CEB010045F822B0D0EDC6
:101A4800007A66EEA77AF4EEC77AF1EE10FA4CD96E
:101A5800F4EEC67AF1EE10FAC0F2D08247F6FE70C4
:101A6800B8F1020F43F822002CD0D9F80800084436
:101A7800D0ED007A66EEA77AF4EEC77AF1EE10FAA6
:101A880037D9F4EEC67AF1EE10FAC0F2E38247F6DF
:101A9800FE7BD9F80C004AF822B00144D1ED007A57
:101AA80066EEA77AF4EEC77AF1EE10FA1FD9F4EED3
:101AB800C67AF1EE10FAC0F2C58247F6FE71B8692F
:101AC80040F82210023294427FF6A1AD51080EEB85
:101AD80081008900D0ED007A66EEA77AF4EEC77A25
:101AE800F1EE10FA9FD8B346A5E73046B8E731467D
:101AF800E5E7B346CDE7002C00F0F981FA69D8F89C
:101B08002030022A00F0FA8103EB8E0ADBF8083055
:101B1800C7F800B006F1040CFB604FEA8E030AF127
:101B28000402DFED715A7B60DBF80C309346D7F87E
:101B380018E0BB600023C7F81890D7F810903D61F3
:101B480056F823105A0898ED0B5A07EE901A5CF8CD
:101B5800231009EB8200B8EEE76A07EE901A5AF8EC
:101B680023100EEB8205F8EEE76A07EE901A0BEBEE
:101B7800830126EE256A0233B8EEE77AD1ED007AC2
:101B880066EEA56AF968F8EEE77A9C4227EE257AB0
:101B980001EB820126EE056A66EE856A27EE057A74
:101BA80067EEA57A85ED006AC0ED006A81ED007ADE
:101BB80098ED0B7AB86867EE877A00EB8202C2ED7F
:101BC800007ABDD8D7F800B0D7F818903D695846C4
:101BD800620849467B699847D8F828307968002216
:101BE800D8ED046A19442B1DD9F800C08B4604317E
:101BF800D9F80480C7F814B09FED3F7AD7F81CB025
:101C0800DFF8ECE09FED366A384EB961FB6150E0D1
:101C1800F4EEC67AF1EE10FAC0F20682304608EB0E
:101C2800010A45F82200DAED007A66EEA77AF4EEAA
:101C3800C77AF1EE10FA4BD9F4EEC67AF1EE10FA43
:101C4800C0F2F9813046FB69BBF1020F43F822006C
:101C58002BD0D9F808000844D0ED007A66EEA77AB0
:101C6800F4EEC77AF1EE10FA36D9F4EEC67AF1EE50
:101C780010FAC0F2D2813046D9F80CA07B695144E1
:101C880043F82200D1ED007A66EEA77AF4EEC77A1F
:101C9800F1EE10FA1ED9F4EEC67AF1EE10FAC0F29F
:101CA800B5813146BB6943F82210023294427FF66F
:101CB800AEAC51080CEB81008900D0ED007A66EEDD
:101CC800A77AF4EEC77AF1EE10FAA1D87046A6E723
:101CD8007046B8E77146E5E77046CDE70280FFFF3A
:101CE80004FF7F3F00FEFF46000000300082FF7FB8
:101CF800007E00800000003404FF7FBF002C00F04D
:101D0800F680D8F820304FEA8E02BD60002103EB40
:101D18008E0E06F1040C1FED096A0EF104003D69F0
:101D2800D7F818A0FA60C7F8189056F821204FEA9B
:101D380051095CF8213082F40002D8ED0B6A83F473
:101D48000003A2F50002A3F5000307EE102A05EB35
:101D5800890207EE903A0AEB8903B8EEC77A4FEA90
:101D68008909F8EEE77A27EE067A67EE867A27EE93
:101D7800267A67EEA67A83ED007AFB69C2ED007ACF
:101D8800022B27D05EF8212050F8213082F400027F
:101D980083F40003A2F50002A3F5000307EE902ADE
:101DA800DBF80820B8EEE77A07EE903A4A44DBF809
:101DB8000C30F8EEE77A27EE067A4B4467EE867A1F
:101DC80027EE267A82ED007A98ED0B7A67EE877A0D
:101DD800C3ED007A02318C42A7D8D7F8189058463C
:101DE80062087B694946BD689847D8F82830F96881
:101DF8000022D8ED046A19442B1DD9F800C08B467F
:101E08000431D9F80480C7F814B01FED457AD7F823
:101E18001CB0DFF8C8E29FEDAD6AAD4EB961FB6159
:101E280050E0F4EEC67AF1EE10FAC0F2C280304605
:101E380008EB010A45F82200DAED007A66EEA77A87
:101E4800F4EEC77AF1EE10FA4BD9F4EEC67AF1EE59
:101E580010FAC0F2BC803046FB69BBF1020F43F8B0
:101E680022002BD0D9F808000844D0ED007A66EE9D
:101E7800A77AF4EEC77AF1EE10FA36D9F4EEC67AFC
:101E8800F1EE10FAC0F2AA803046D9F80CA07B69AE
:101E9800514443F82200D1ED007A66EEA77AF4EEB9
:101EA800C77AF1EE10FA1ED9F4EEC67AF1EE10FAFE
:101EB800C0F286803146BB6943F822100232944250
:101EC8007FF6A5AB51080CEB81008900D0ED007AB4
:101ED80066EEA77AF4EEC77AF1EE10FAA1D870464A
:101EE800A6E77046B8E77146E5E77046CDE72246B3
:101EF800494658467B699847FFF789BB98ED0B6AB6
:101F0800002306F1040CDFED736AB869D7F810A056
:101F180006EB83020CEB830192ED007A5A08D1EDAF
:101F2800007A0233B8EEC77A00EB8201F8EEE77A5E
:101F38000AEB82029C4227EE267A67EEA67A27EE03
:101F4800067A67EE867A81ED007AC2ED007ADFD8EC
:101F58004FEA8E037B603AE698ED0B6A06F1040CB3
:101F6800DFED5D6AB869D7F810A036F922303CF980
:101F7800221007EE103A530807EE901A0232B8EE14
:101F8800C77A00EB8301F8EEE77A0AEB8303944201
:101F980027EE267A67EEA67A27EE067A67EE867A25
:101FA80081ED007AC3ED007ADFD84FEA8E037B60BB
:101FB80019E5F0EE675AFEEEE45A15EE900A37E797
:101FC800F0EE675AFEEEE45A15EE901A73E7F0EE5B
:101FD800675AFEEEE45A15EE900A3DE7F0EE675AAE
:101FE800FEEEE45A15EE900A4FE767EEA57AFDEE8D
:101FF800E77A17EE900A0FFA80FB1CE567EEA57AE0
:10200800FDEEE77A17EE900A00B229E5F0EE675A7E
:10201800FEEEE05A15EE901A44E6F0EE675AFEEE30
:10202800E05A15EE900A27E6F0EE675AFEEEE05AFF
:1020380015EE900AF3E5F0EE675AFEEEE05A15EE5B
:10204800900A00E667EEA57AFDEEE77A17EE901A99
:1020580009B234E567EEA57AFDEEE77A17EE900A45
:102068000FFA80FB15E5F0EE675AFEEEE45A15EE1E
:10207800902AFFF7FEBB67EEA57AFDEEE77A17EE2A
:10208800902A12B2FFF70ABBF0EE675AFEEEE45A46
:1020980015EE902AFFF7DBBBF0EE675AFEEEE05A2A
:1020A80015EE902AFFF772BBF0EE675AFEEEE05A83
:1020B80015EE902AFFF757BB67EEA57AFDEEE77A93
:1020C80017EE902A12B2FFF7FDBA00BF04FF7F3F58
:1020D80082FF7F0000000030000000387E0080FF93
:1020E80070B5164C154684B0046004F1080601ABBF
:1020F80007C986E80700D4ED047AF5EEC07A83E8CC
:102108000700F1EE10FA15DDF7EE006A86EEA77A01
:1021180084ED0B7A75B1204640F8145F01F014FE87
:102128000346074A00201969064BE160E2616362D1
:1021380004B070BD012004B070BD00BFAC94002491
:1021480000200030000000302DE9F041194C1746FE
:1021580086B09846046004F1080C6E4603AD07C9C2
:102168008CE80700D4ED047AF5EEC07A86E807001B
:10217800F1EE10FA85E8070011DDF7EE006A86EE49
:10218800A77A84ED0B7A57B1204640F8147F01F006
:10219800DBFD094A0169094BE160E2616362084AB3
:1021A8000020084BC4F818802262A36206B0BDE87C
:1021B800F08100BFAC940024002000300000003003
:1021C800003000300010003000680830704700BF51
:1021D8000068143001F0EEBD70B5046882B00D4699
:1021E800A3694BB1A3680026A26A04F11800216A0A
:1021F8009B00009601F0AAFDA36804F11400064EA6
:10220800626A9B00E169009601F0A0FD0020C4E924
:10221800005002B070BD00BFD5140008024B002268
:10222800C3E90522704700BFAC940024F6EE006AAB
:10223800016060EE207A0021B7EE007A02764376DC
:1022480067EEA67A80ED020AC0ED070A80ED047AEF
:10225800C7EE276AC160416110B4002484765DF836
:10226800044BC0ED016A70470268037E128807EECE
:10227800902AFBEEC87A1BB1B7EE007A77EE677A40
:10228800D0ED056A90ED047A77EEE67A437E67EE44
:10229800877A0BB1F1EE677A90ED030A90ED017A37
:1022A80077EEC07AA7EE270A80ED030A704700BFD1
:1022B80030B5044685B04FF480751030ADF808206D
:1022C800ADF80C100180A2826582E5828DED000ACE
:1022D800ADF8043000F0EAFE04F1140000F0E6FE68
:1022E8009DED000A2046019900F054F800224FF6AF
:1022F800FF73E261238305B030BD00BF70B5067E71
:1023080004461030760000F0ADFF034676B2657ED5
:1023180004F114001E436D0026766DB200F0A2FF92
:10232800034620461D43657600F050F8237E0022C0
:1023380003F00303E261022B06D0627E02F003027F
:10234800022A00D133B170BD637E9B07FBD1012304
:10235800E36170BD4FF0FF33E36170BD098800226F
:102368000180C0F8022000F0A1BE00BF10B543797B
:102378000446037100F076FF00280CBF01230023F8
:10238800637104D12079B0FA80F0400910BD0020B3
:1023980010BD00BFB7EE007A01220346C7EE007AEF
:1023A80070B4002683B0C1F307250024ADF80410EB
:1023B800C660417010449D70DC701A709A809A71E2
:1023C800C3ED027A03B070BC00F070BE38B5447932
:1023D800054683790130640064B2B3B100F042FF6E
:1023E800B0FA80F35B092343DBB2A3F17F026B7180
:1023F800012A0ED9FF2B07D1D5ED037A95ED027A84
:1024080077EE877AC5ED037A38BD00F02BFF43B22B
:10241800E9E70023EB6038BD82B000230322ADF862
:102428000410BDF80410827001800374C37002B0F8
:10243800704700BF2DE9F04FDB4F0026DB4C8FB013
:1024480007F13805426003709646A4F8096184468E
:1024580003960696BE61C4F8FD60C4F80161C4F82D
:102468000561C4F82461C4E94A75C7E90066C7E98B
:102478000266C7E90466C4E94366C4E94566C4E977
:102488004766CDE90466CDE90766CDE90966CDE979
:102498000B6684F8FC20426884F80C62002A00F07D
:1024A80091820D460868A0464968EB68AA683E8094
:1024B800A8E80F002B7C88F800302B7C84F8FD30CE
:1024C8002B7C002B40F09F82DCF80430012B40F27B
:1024D800B4812B46B64A002153F8119F7980D3F86E
:1024E80004809E68D868C4F81190C2F80480966089
:1024F800D0601B7C137495F8213084F8FE3095F871
:102508002130002B40F08382DCF80430022B40F2AB
:1025180094812B46A74A002153F8229FB980D3F80B
:1025280004809E68D868C4F82290C2F80480966037
:10253800D0601B7C137495F8323084F8FF3095F81E
:102548003230002B40F05B82DCF80430032B40F281
:1025580074812B46984A002153F8339FF980D3F8A9
:1025680004809E68D868C4F83390C2F804809660E6
:10257800D0601B7C137495F8433084F8003195F8CB
:102588004330002B40F04782DCF80430042B40F243
:102598005481A8460023894E58F8440F3B81D8F847
:1025A8000410D8F80C30D8F808200FC698F8103066
:1025B800337095F8543084F8013195F8543013B1DC
:1025C800012384F80C32DCF80430052B40F2358105
:1025D8002B467B4A002153F8559F7981D3F8048014
:1025E8009E68D868C4F85590C2F804809660D06098
:1025F8001B7C137495F8653084F8023195F86530C2
:1026080013B1012384F80C32DCF80430062B40F2B5
:1026180014812B466B4A002153F8669FB981D3F881
:1026280004809E68D868C4F86690C2F804809660F2
:10263800D0601B7C137495F8763084F8033195F8D4
:10264800763013B1012384F80C32DCF80430072B00
:1026580040F2F3802B465C4A002153F8779FF981BA
:10266800D3F804809E68D868C4F87790C2F80480CC
:102678009660D0601B7C137495F8873084F8043119
:1026880095F88730002B40F0CA81DCF80430082B1D
:1026980040F2D380A84600234C4E58F8880F3B825E
:1026A800D8F80410D8F80C30D8F808200FC698F8D5
:1026B8001030337095F8983084F8053195F89830D3
:1026C800002B40F01D82DCF80430092B40F2B58065
:1026D8002B463F4A002153F8999F7982D3F804800A
:1026E8009E68D868C4F89990C2F804809660D06053
:1026F8001B7C137495F8A93084F8063195F8A93035
:10270800002B40F0F981DCF804300A2B40F2958068
:102718002B46304A002153F8AA9FB982D3F8048087
:102728009E68D868C4F8AA90C2F804809660D06001
:102738001B7C137495F8BA3084F8073195F8BA30D1
:10274800002B40F0D581DCF804300B2B75D92B46D3
:10275800214A002153F8BB9FF982D3F804809E6870
:10276800D868C4F8BB90C2F804809660D0601B7C1F
:10277800137495F8CB3084F8083195F8CB30002BDA
:1027880040F0A881DCF804300C2B56D9A846002369
:10279800124E58F8CC0F3B83D8F80410D8F80C30F8
:1027A800D8F808200FC61BE000400030E094002451
:1027B800F194002402950024139500242495002404
:1027C80035950024469500245795002468950024E3
:1027D800799500248A9500249B950024AC950024C3
:1027E80098F81030337095F8DC3084F8093195F892
:1027F800DC3013B1012384F80C32DCF804300D2BE3
:102808001BD92B46C64A002153F8DD9F7983D3F89C
:1028180004809E68D868C4F8DD90C2F80480966089
:10282800D0601B7C137495F8ED3084F80A3195F864
:10283800ED3013B1012384F80C325FFA8EF2B948F7
:102848004FF480210023C4F848210122C4F8300144
:102858000820C4F8341194F80C12C4F8383184F8FC
:102868004431C4E95533C4E94F20002900F0BD8044
:1028780084F8453184F84C21C4F85C219CF8003078
:1028880000200021C4E95801F3B101220021013BD5
:1028980084F86821C4E95D12082B0ED8DFE813F02C
:1028A80009001E012301D100D600DB00E000C300AF
:1028B800CA0003234022C4E95B329B4803F0D0FBE3
:1028C800034648B1FFBEFEE7974884F8683103F035
:1028D800C7FB03460028F5D103A99348039303F0E7
:1028E8001BFD0546002840F0F38040F2FF730222EA
:1028F80004200021CDE9082394F8FC30CDE90A0131
:10290800002B00F0E2800627DFF848B221E0022B16
:1029180000F0AC80012B40F0FB809AF80130012BCD
:1029280000F0F480002B814B18BF002306A97E48D5
:102938000693079702F0B8FF002840F0E5800135BC
:1029480094F8FC30EDB2AB4240F2BF80784B53F8BC
:1029580025700FFA85F808EB081804EB080A5046AA
:1029680000F0A4FB05EB051323441B7C042B00F3A8
:10297800AA80022B00F3A58000F08480631900224E
:1029880083F8EE2014F80830002BC0D19AF80130F3
:10299800062B00F0E380072B00F0DE80022B00F00E
:1029A800BD80032B00F0B880002B00F0B380012B12
:1029B80000F0D680042B00F0D580052B5D4B18BFA6
:1029C8000023B3E75FFA8EF3564D4FF480200121C0
:1029D800C4F848310823C4F8382184F84421C4E9EC
:1029E8005522C4E94C50C4E94F13012100220323A6
:1029F80084F8451184F84C21C4F85C313EE7012382
:102A080084F80C32A0E5012384F80C325CE501233C
:102A180084F80C3278E5012384F80C32B4E50123FC
:102A280084F80C3231E640F2FF134FF49072C4E997
:102A38005B3242E740F2FF334FF4A072C4E95B32E5
:102A48003BE71F23A022C4E95B3236E73F23C022BD
:102A5800C4E95B3231E77F23E022C4E95B322CE72B
:102A6800FF234FF48072C4E95B3226E79AF80130FD
:102A7800042B24D0052B20D0EBB1012B2E4B18BFF3
:102A8800002353E70121631908F104090022019783
:102A98001E462F46A144154683F8EE1048460135D8
:102AA80000F004FB96F8EE3009F10409AB42F5DCBE
:102AB8003D46019F66E7214B38E7214B36E7214B1E
:102AC80034E70221DFE70321DDE70FB0BDE8F08F2F
:102AD800FFBEFEE7012384F80C3253E60723602289
:102AE800C4E95B32E9E60F238022C4E95B32E4E6FD
:102AF800012384F80C3226E6012384F80C3202E61E
:102B0800012384F80C32DEE5FFBEFEE75B460DE7E5
:102B180000230BE70C4B09E70C4B07E70C4B05E7C9
:102B2800BD95002400200240109600240002B02524
:102B38002CDA00080000B84F0008302E0004002AE4
:102B4800000180211000C010000021430080F03EE9
:102B58000040C03A2000F014034BE7E6034BE5E6DB
:102B6800034BE3E6034BE1E68000501D0800900CA0
:102B7800000052470000844B38B5094C40F2FF7200
:102B88004FF0011104F59875284603F073FB2846A9
:102B980094F8FC20D4F82811BDE8384003F0D8B8E0
:102BA800E0940024034B0D29D3F8280198BF00EBCB
:102BB80041007047E0940024224B02689A4200D0FA
:102BC8007047214B09200021D3F8D820F0B51F4CBD
:102BD80042F02002002583B094F80C624FF480671D
:102BE800C4F8B451C4F8B851AE42C3F8D82004F5BB
:102BF800CA75D3F8D83014BF00224FF48072144E2F
:102C080003F02003C4F8946100260193019B4FF45C
:102C18000053C4F8B0214FF40062C4E966012846A5
:102C2800C4E96867C4E96A2303F0CAFE08B1FFBEB5
:102C3800FEE704F59873C4F87C51C4F8CC3103B0AE
:102C4800F0BD00BF0020024000440258E094002478
:102C580040000240014804F043BA00BF74960024C3
:102C680002682DE9F84F4C4B9A4201D0BDE8F88F25
:102C78004A4E96F80C32002BF8D096F8FC20002A21
:102C880076D00024371D06F5867506F1FC09A046A6
:102C980016E05FFA83FA03F0010119F80FBC384611
:102CA80000F0EEFA381DBBF1010FCAF3400123D83A
:102CB80096F8FC20013411370235A3B29A4227D97D
:102CC80019F8013F002BF5D0D6F828210021D6F8B5
:102CD8002C3132F814008A462A7803EB041323F8BF
:102CE80012002B8801339BB22B8099F800209A425E
:102CF800CFD8A5F80080D0E700F0C2FABBF1020FE8
:102D080007F10800CAF38001D2D000F0B9FACFE782
:102D180096F80C224FF009084FF00009204B002AC2
:102D28004FF000044FF480654FF400604FF40051F9
:102D380014BF00224FF48072C6F89431C6E9668940
:102D4800C6E96845C6E96A0100231648C6E96C2346
:102D5800C6F8B83103F034FE08B1FFBEFEE796F8B6
:102D6800FC20D6F828111048BDE8F84F02F0F0BF53
:102D78000B4B0924002500204FF480614FF40068B4
:102D88004FF40059C6F89431C6E96645C6E96801AA
:102D9800C6E96A89D8E700BF00200240E094002411
:102DA800400002407496002410960024704700BF2B
:102DB800504B02689A4200D070474F4BD3F8E81046
:102DC8002DE9F04341F000514C4C85B0D4F848212E
:102DD800C3F8E810D3F8E81001F000510191019907
:102DE800D3F8E01041F00101C3F8E010D3F8E03067
:102DF80003F001030293029B32F002033DD0013A33
:102E0800012A6CD9D4F84C31012B0AD00022362083
:102E1800114603F0F7FA362003F02EFB05B0BDE8A3
:102E2800F083D4F8483133F0020234D0013B012B4F
:102E3800ECD8334B442640270022C4F88C304FF49A
:102E48008063304D0021C4E92467C4E926234FF488
:102E580000664FF400574FF480724FF480332846D1
:102E6800C4F8B010C4E92867C4E92A2303F0A8FD10
:102E780080B9E560C4F8C440C8E74FF48062032312
:102E880003A8ADF80C208DF80E3000F00FF9D4F837
:102E98004821B4E7FEE7432640271B4B4FF00008C4
:102EA8001A4D4FF48069A2634FF4807263614FF446
:102EB80080332846C4E906674FF400664FF400578C
:102EC800C4E90889C4E90A67C4E90C2303F078FD5A
:102ED80020B9D4F84831A560E464A7E7FEE74FF4C9
:102EE800A062032303A8ADF80C208DF80E3000F083
:102EF800DDF887E70074004000440258F09600248B
:102F0800280402407C9700241004024004970024FF
:102F1800014804F0E5B800BF04970024014804F014
:102F2800DFB800BF7C97002410B5054C204603F09D
:102F380089FB04F58270BDE8104008F0E3B900BFD2
:102F4800F0960024F0B53A4D0C463A4F8DB0056026
:102F580005F5A2760FCC0FC6236828462F6033608C
:102F680003F014FB0023D5F84C410393C4B1162297
:102F7800012C049217D00022D5F85411D5F8483105
:102F88009142CDE9062218BF0222059233F00202CF
:102F980037D0013B012B3ED9002420460DB0F0BDAF
:102FA80002230493E7E7244A0093C5F80C31C5F8D7
:102FB8001431C5F81C31C5F80421CDE9013302F0FC
:102FC8009FFAD5F844314BF68031024605F58270F8
:102FD800C5F80841002B08BF0B46B2FBF3F3C5F850
:102FE800103108F013F803460028D6D1202269468C
:102FF80005F582700293009208F03CFA0028BAD0D6
:10300800CBE703A90A4803F051FB78B9D5F8483152
:10301800013B012BC0D8102203A9054803F046FB49
:10302800041E18BF012420460DB0F0BD0124B4E7EA
:10303800F096002400740040001000402DE9F04193
:103048000668D6F84C5105BBD6F850310C461746E1
:10305800002B0CBF4FF008084FF0000831F00203B6
:1030680005D0013C012C14D92846BDE8F08113464F
:10307800294642463046013C03F0CAFA2946304602
:1030880003F09AFA012CEFD803E001252846BDE8A1
:10309800F0813B4642461021304603F0B9FA3046EB
:1030A800102103F089FA2846BDE8F08130B583780D
:1030B8008FB00446022B37D0032B33D0012B31D0ED
:1030C80000230A93E378012B2AD0022B28D000236F
:1030D8000B93002320460C9302F062FA0546204623
:1030E80002F066FA23780990082B13D8DFE803F07A
:1030F8001F3245586B7E91A40500594BD3F8E02048
:1031080042F48072C3F8E020D3F8E03003F480730F
:103118000893089B284609A904F042FB0FB030BD6C
:103128000B93D6E70A93CDE711230A93CAE74C4BD2
:10313800284609A9D3F8E02042F00102C3F8E020AC
:10314800D3F8E03003F001030093009B04F028FB60
:103158000FB030BD424B284609A9D3F8E02042F011
:103168000202C3F8E020D3F8E03003F00203019331
:10317800019B04F015FB0FB030BD394B284609A957
:10318800D3F8E02042F00402C3F8E020D3F8E0309E
:1031980003F004030293029B04F002FB0FB030BD5E
:1031A8002F4B284609A9D3F8E02042F00802C3F8BB
:1031B800E020D3F8E03003F008030393039B04F006
:1031C800EFFA0FB030BD264B284609A9D3F8E02006
:1031D80042F01002C3F8E020D3F8E03003F0100307
:1031E8000493049B04F0DCFA0FB030BD1C4B284656
:1031F80009A9D3F8E02042F02002C3F8E020D3F870
:10320800E03003F020030593059B04F0C9FA0FB0E2
:1032180030BD134B284609A9D3F8E02042F04002FC
:10322800C3F8E020D3F8E03003F040030693069B90
:1032380004F0B6FA0FB030BD094B284609A9D3F8F7
:10324800E02042F08002C3F8E020D3F8E03003F039
:1032580080030793079B04F0A3FA0FB030BD00BFAB
:103268000044025838B5054602F09AF90446284643
:1032780002F09EF901462046BDE8384004F082BCC1
:1032880070B506460D4602F08BF90446304602F04A
:103298008FF92A1E0146204618BF0122BDE870405A
:1032A80004F076BC2DE9F04FA44C0346ABB02046A1
:1032B80023655F7893F8008004F0F2FDE8B9012FE8
:1032C8004FF001059E49034614BF4FF480124FF496
:1032D8000002E060A560C4E9001592FAA2F2B2FA11
:1032E80082F24FF48076E0612046013A2362C4E915
:1032F800042604F069FD034618B101202BB0BDE88F
:10330800F08F4FF0660C41F2883220460EA91496D1
:10331800179313931B93CDF838C0CDE91533CDE936
:10332800193304F0DBFD0028E7D1992341F28832F4
:103338000EA920460E9304F0D1FD0028DDD14FF0F0
:10334800000B4FF0010C4FF0050A4FF080792490E4
:1033580008AA21901CA9299041F28833CDF870A0C1
:10336800CDF89490CDE908BC4FF0100B4FF0010C4C
:10337800CDE90ABC4FF0000B4FF4800CCDE9226078
:10338800CDE927002046CDE90CBC04F013FF002846
:10339800B3D1ADF808001390CDE91460CDE9160952
:1033A800CDE91850CDE91A00002F00F0CB80F023AA
:1033B800ADF80830C02341F288320EA95F480E9359
:1033C80004F08CFD002898D141F288325B4802A9AC
:1033D80004F0EEFD044600288FD1002601274FF4A3
:1033E80080754FF080794FF0000A4FF4800B2194DC
:1033F80041F28833299408AA1CA950482295CDF88F
:103408009490CDE90867CDE9234410260127CDE93A
:1034180027440524CDE90A671C94CDE90CAB04F0D8
:10342800C9FE00287FF469AF012406238DF8070040
:1034380041F2883213901CA91B90219029900E9478
:103448001C93CDE91450CDE91609CDE91900CDE951
:103458002250CDE92400CDE92700384804F03EFD8C
:1034680000287FF44AAF10260127052041F288334F
:1034780008AA1CA91C903148CDF89490CDE90A6798
:1034880002260227CDE90CABCDE9086704F092FECD
:1034980000287FF432AF41F288320EA9274804F0A1
:1034A8001DFD00287FF429AF402341F288320DF139
:1034B800070122488DF8073004F07AFD00287FF4D0
:1034C8001CAF10260127052002AA41F288330EA955
:1034D8000E901A48CDF85C90CDE904674026402745
:1034E800CDE906ABCDE9026704F064FE0646002884
:1034F8007FF403AF22950025219605202996012700
:103508001C9008AA41F288331CA90C48CDF8949065
:10351800CDE92366CDE927660126CDE908561026B0
:10352800CDE90CABCDE90A6704F044FE00287FF42E
:10353800E4AEB8F1000F50D00020DFE65898002420
:1035480000500052612341F288320EA920460E93A2
:1035580004F0C4FC00287FF4D0AE41F2883202A9FE
:10356800204604F0A3FD00287FF4C7AEBDF808305C
:103578000625259041F2883223F07803219029907E
:103588001CA943F0400322961C95ADF80830CDE9FC
:103598002300CDE92700204604F0A0FC00287FF492
:1035A800ACAE1026012720460225022441F28833BA
:1035B80008AA1CA9CDF870A0CDF89490CDE90A67A7
:1035C80000264FF48007CDE90845CDE90C6704F0E3
:1035D800F1FD00283FF4EEAE8FE6EB24A0264FF471
:1035E800005706251C9400244FF0805000234FF408
:1035F80080784FF4406929900EAA1CA90C48CDE99F
:103608001E67CDE920454FF440464FF0407700242F
:103618000025CDE92733CDE92289CDE92467CDE915
:103628000E4504F03BFE003818BF012066E600BFD7
:10363800589800243E4B02682DE9F0479A428CB016
:103648004FF00005CDE90755CDE909550B9502D096
:103658000CB0BDE8F087374B0226374905AFD3F8E1
:10366800D420B146DFF8D4A04FF0030842F48042DA
:10367800C3F8D420D3F8D42002F480420092009AF0
:10368800D3F8E02042F04002C3F8E020D3F8E0206D
:1036980002F040020192019AD3F8E02042F02002A1
:1036A800C3F8E020D3F8E02002F020020292029A48
:1036B800D3F8E02042F01002C3F8E020D3F8E0206D
:1036C80002F010020392039AD3F8E0203243C3F8C1
:1036D800E020D3F8E03033400493049B03C90590FD
:1036E800ADF81810DAF8504034440236204601F09C
:1036F80057FF034620461C4601F05AFF17F8013BC6
:10370800024607A920460B93CDE90729CDE90958B8
:1037180004F046F80E2EE5D100225C20114602F096
:1037280071FE5C2002F0A8FE0CB0BDE8F08700BF77
:1037380000500052004402586CDA000858980024DF
:10374800124B02689A4200D07047114AD2F8D4301E
:1037580070B523F4804302250E4EC2F8D430346D80
:103768002C440235204601F01BFF034620461C4628
:1037780001F01EFF0146204604F036F90E2DEED169
:103788005C20BDE8704002F085BE00BF00500052CA
:103798000044025858980024014804F007BE00BFAE
:1037A80058980024F8B5036871B9026A00F1280531
:1037B80000F5AC74012A0CBF002240228BBB1D49C6
:1037C8005723C0F858110DE0426A00F1C00500F512
:1037D800E874012A0CBF00224022EBB116495A2393
:1037E800C0F8D01100214FF480504FF480674FF497
:1037F800804663604FF40033A2604FF48072E1604A
:1038080061622362C4E90470C4E90662204603F0D9
:10381800D7F858B1FFBEFEE708495823C0F8D011C1
:10382800E0E707495923C0F85811DBE7C5E9204408
:10383800A563F8BD10000240700002402800024055
:10384800580002402DE9F043831D05468BB0041D46
:1038580005F10A01083005F10C020593AB69CDE9C1
:103868000640CDE90812002B3DD0EB69B3FA83F886
:103878004FEA58180222012305AE0AAF4FF0060995
:103888000192CDE9023356F8044B2B792278934202
:1038980016D02B68F3B1012B02D1F2B10A2304939D
:1038A800204601F085FE03462046009301F078FE8D
:1038B800694603F075FFBE42E5D10BB0BDE8F08361
:1038C800697963789942E4D1B8F1000FF3D02B6895
:1038D800002BE0D1CDF81090E2E76378022B14BFFB
:1038E8000A230823DBE74FF00108C3E7534A0368BC
:1038F800934230B505468BB055D02032934252D012
:103908004F4A934204D02032934201D00BB030BDCD
:103918004C4C4D48D4F8E03043F00103C4F8E03093
:10392800D4F8E03003F001030593059BD4F8E030A8
:1039380043F00803C4F8E030D4F8E03003F008039B
:103948000693069BD4F8E03043F04003C4F8E03017
:10395800D4F8E03003F040030793079BD4F8F03025
:1039680043F40003C4F8F030D4F8F03003F4000353
:103978000893089BFFF766FFD4F8D830296843F00E
:1039880001032F4A3048C4F8D830891AD4F8D830FF
:1039980018BF012103F001030993099B0BB0BDE88F
:1039A8003040FFF7FFBE274C2848D4F8E03043F0FA
:1039B8000103C4F8E030D4F8E03003F001030093C9
:1039C800009BD4F8E03043F01003C4F8E030D4F89A
:1039D800E03003F010030193019BD4F8E03043F08A
:1039E8004003C4F8E030D4F8E03003F04003029319
:1039F800029BD4F8F03043F48003C4F8F030D4F8D4
:103A0800F03003F480030393039BFFF71BFFD4F804
:103A1800D830296843F00103084A0C48C4F8D83064
:103A2800891AD4F8D83018BF012103F00103049390
:103A3800049B0BB0BDE83040FFF7B4BE045801400A
:103A4800045C014000440258089B0024AC98002400
:103A5800014803F045BB00BF049A0024014803F065
:103A68003FBB00BF7C9A0024014803F039BB00BF6C
:103A7800609C0024014803F033BB00BFD89C00249D
:103A88001A4A0368934210B40BD02032934208D0EC
:103A9800174A934216D02032934213D05DF8044B54
:103AA8007047144B0022D3F85442C3F85822002C14
:103AB800F4D0D3F84802D3E9931223465DF8044BB7
:103AC800520818470B4B0022D3F8B044C3F8B4246B
:103AD800002CE3D0D3F8AC24D3F8A814D3F8A4046A
:103AE800520823465DF8044B184700BF04580140AC
:103AF800045C0140AC980024184A0368934210B44F
:103B08000BD02032934208D0154A934217D0203266
:103B1800934214D05DF8044B7047124BD3E99424B8
:103B28005208C3F85822002CF4D0D3E99201234656
:103B380001EB820100EB82005DF8044B1847094B4A
:103B4800D3F8AC24D3F8B0445208C3F8B424002CFA
:103B5800E0D0D3F8A814D3F8A404E8E70458014047
:103B6800045C0140AC9800242DE9F04F0C684FF438
:103B78001778DFF8D09185B008FB04F8012C09EB21
:103B8800080CC0F800C000F397804FF0000A0E46FA
:103B98000F466546CCF850A2CCE992AA0FCE0FC5C5
:103BA8000FCE0FC563A3D3E9002364A1D1E90001B7
:103BB800CDE9022304AB03EB8403CDE9000153F8FC
:103BC800102C53F8083C96E80300CCF82820CCF8D1
:103BD800C0303B6985E80300042B0CD8DFE803F00C
:103BE800707A848E03004FF417734F4A03FB0493D3
:103BF8009A64C3F8E020BA69002A43D03A6A4FF4BD
:103C080017730121002A03FB04930CBF022203222D
:103C1800C3E90B21FA69002A41D1796A4FF4177375
:103C2800003903FB049318BF0121C3E931127B69F2
:103C3800022B05D83D493E4A11F803A052F823B09B
:103C48004FF41772002508F12800022302FB0494A0
:103C580059464844524665646563E565C4F8DC50D6
:103C6800C4F8CC50C4F8F450C4E90F55C4E915554C
:103C7800C4E93555C4E93B5506F05EFC002847D039
:103C8800FFBEFEE7396A4FF41773003903FB04934C
:103C980018BF0121C3E90B12FA69002ABDD07A6A5C
:103CA8004FF417730121002A03FB04930CBF02226F
:103CB8000322C3E93121BAE7012005B0BDE8F08F3E
:103CC8004FF417734FF4FA5203FB04939A64C3F842
:103CD800E02090E74FF417734FF47A5203FB0493F4
:103CE8009A64C3F8E02086E74FF417734FF4FA425A
:103CF80003FB04939A64C3F8E0207CE74FF417733E
:103D08004BF6803203FB04939A64C3F8E02072E711
:103D180008F1C000524659460223484406F00CFCFC
:103D28000028CAD0FFBEFEE70077010074DA000859
:103D380078DA000824580140245C01400458014006
:103D4800045C0140AC9800240068704770B50468B2
:103D5800154682B00E46226A0698012AC4F848120F
:103D68009AB2C4F85402C4E9935311D0294604F115
:103D78002800019206F0A2FC636A019A012B10D078
:103D8800294604F1C00006F099FC002002B070BD7D
:103D980004F12800019206F023FD636A019A012BC1
:103DA800EED1314604F1C00006F01AFD002002B041
:103DB80070BD00BF03681B69042B05D8044A02EBD9
:103DC800830393ED000A70479FED020A704700BF16
:103DD80084DA000800803B470368D3F8580270472C
:103DE8002DE9F043022287B00023044605690493B5
:103DF800CDE90223D0E902128E004AB3022D7CD00D
:103E08002278B5FA85F54FF00108276A0B2A4FEAA0
:103E180055152BD0894B607853F8263019780B2923
:103E280002D08A4200F0CE80D97803F1030C0B2926
:103E380002D08A4200F0DA80997903F1060C8A42AE
:103E480002D10B2940F0D880012007B0BDE8F083EB
:103E580035F002030CBF4FF001084FF00008023D97
:103E680018BF01252278276A0B2AD3D1A2780B2AFA
:103E780002D0B8F1000F0CD122790B2A01D0002D05
:103E88003ED1A2790FB10B2A6AD1002007B0BDE854
:103E9800F083711C694BE07853F8213019780B29AD
:103EA80002D08A4200F0AD80D97803F1030C0B29C7
:103EB80002D08A4200F0B280997903F1060C8A4256
:103EC800C2D10B29C0D0DB798342BDD1634604F14E
:103ED80002089B784046059301F062FB0346404682
:103EE800984601F065FB034601A94046019303F09B
:103EF80057FC22790B2AC2D1C3E798460125B1E7BE
:103F0800B11C4E4B607953F8213019780B2901D038
:103F18008A427BD0D978DD1C0B2902D08A4200F076
:103F2800878099799D1D8A428ED10B298CD0DB79A7
:103F3800834289D12B46251D9B782846059301F09D
:103F48002FFB034628461D4601F032FB034601A914
:103F58002846019303F024FCA279002F93D194E71B
:103F68003649F31CE07951F8233019780B2901D030
:103F78008A4259D0D978DD1C0B2901D08A4249D010
:103F880099799D1D8A427FF45FAF0B293FF45CAF9E
:103F9800DB7983427FF458AF2B4606349B78204662
:103FA800059301F0FDFA034620461C4601F000FB8C
:103FB800034601A92046019303F0F2FB002007B055
:103FC800BDE8F083597881427FF42EAF9B78204674
:103FD800059301F0E5FA8146204601F0E9FA034627
:103FE80001A94846019303F0DBFB3FE719798142B9
:103FF8007FF422AF6346E9E7DB7983427FF424AF9D
:10400800F8E7597881427FF44FAF60E759788142E9
:1040180080D190E719798142B2D1BDE719798142FF
:104028007FF44AAF634652E759788142A2D1B4E798
:10403800197981427FF475AF2B467CE7C0DA000816
:1040480070B5514D8CB0066806AC0FCD0FC4069BF9
:1040580095E803009E4284E8030000F08780079BF0
:104068009E4200F08580089B9E4200F08380099B59
:104078009E4200F081800A9B9E427FD00B9B9E420D
:104088007ED10522B023414903FB02F3CC18C85C5A
:1040980001F096FAA07801F093FA207901F090FAED
:1040A800A07901F08DFAA368052B11D8DFE803F099
:1040B800182634425003364BD3F8F42042F020023D
:1040C800C3F8F420D3F8F43003F020030693069BDA
:1040D8002046FFF785FE012800D1FFBE0CB070BD59
:1040E8002B4BD3F8F02042F48052C3F8F020D3F8D9
:1040F800F03003F480530193019BE9E7244BD3F894
:10410800E82042F48042C3F8E820D3F8E83003F40A
:1041180080430293029BDBE71D4BD3F8E82042F46F
:104128000042C3F8E820D3F8E83003F400430393CF
:10413800039BCDE7164BD3F8F02042F40052C3F8A6
:10414800F020D3F8F03003F400530493049BBFE746
:104158000F4BD3F8F02042F48012C3F8F020D3F8C4
:10416800F03003F480130593059BB1E7002289E73B
:10417800012287E7022285E7032283E7042281E7F9
:1041880000231B78FFDE00BF1CD90008649D0024B3
:10419800004402582DE9F047D1F808E0B026DFF8CE
:1041A800F4800C4606FB0EF68446BEF1050F08EBBC
:1041B80006070FCC3D46CCF800700FC50FCC0FC5D5
:1041C80094E8030085E8030004D8FB68002B5CD062
:1041D800012B02D00120BDE8F0870021B02202FBAC
:1041E8000E821369032BF5D85569281F1C28F1D8AE
:1041F80092691AB1012AEDD14FF00072B02000FB8C
:104208000E80C7691FB1012FE4D14FF08077B02429
:1042180004FB0E84206A0228DCD8D4F824C0BCF140
:10422800070FD7D806F1280A194EDFF86C905B04FF
:1042380056F82E60013D59F820904FEA0C7C4FF05B
:10424800804EA662002608EB0A00C4F844C0E1626A
:10425800C4F84090C4F88060C4F85CE0C4E90C3548
:10426800C4E90E27C4E91266C4E91466C4E91866ED
:10427800C4E91A66C4E91C66C4E91E6606F07CFC3B
:104288000028A8D0FFBE0120A5E74FF48001A5E7CC
:1042980098DA0008649D0024B0DA0008006892B239
:1042A80008B5283006F01CFD003818BF012008BDED
:1042B800424B19681A88080C9B78F0B4404C414D61
:1042C800E2802372EA802B723F4E404DA07021801D
:1042D800A4F8032063713E4CF2803372E2803D4EB5
:1042E8002372EA803C4C2B72A5F803206B713B4D7E
:1042F8003B4FF2803372A4F803203A4E6371E28098
:104308002372EA80384C2B72384DFA803B72A6F83B
:1043180003207371F280A8702980A0702180337205
:10432800A5F80320324E6B71EA802B72A4F80320A3
:10433800304D6371E28023722F4CB0703180A870C9
:104348002980A0702180A6F803207371F28033724F
:10435800A5F80320294E6B71EA802B72A4F803207C
:10436800274D6371E2802372264CB0703180A6F825
:1043780003207371F2803372A870234E2980EA807B
:104388002B72A070218021482149A5F803206B7168
:10439800204DA4F803206371E2802372A6F803205D
:1043A8007371F2803372EA802B72C2800372A1F8B3
:1043B80003204B71CA800B72F0BC7047BCDA00084E
:1043C8009CA100244C000024400000245800002434
:1043D80004000024640000248800002470000024E5
:1043E8007C0000241C000024A8A10024C0A10024F3
:1043F800B4A1002484A10024E4A10024CCA10024B9
:10440800D8A1002490A10024AC000024A00000241E
:104418002800002494000024F0B5022287B000236D
:10442800D0F8241204464D000493CDE9022390F8F5
:1044380020220B2A23D194F822220B2A02D1002011
:1044480007B0F0BD6B1C4849484851F82330017843
:104458001D7846788D4294F8237267D0AA4276D0A8
:10446800D878DD1C81426DD0824278D098799D1D24
:10447800884270D0824232D0012007B0F0BD3A4B5A
:104488003A4853F8253001781E784778B14294F8B5
:1044980021C23DD0B24240D0D878DE1C814240D003
:1044A80082424BD098799E1D884243D08242E3D104
:1044B800DB796345E0D1334604F508769B783046CE
:1044C800059301F06DF8034630461E4601F070F87A
:1044D800034601A93046019303F062F9ABE7DB79A3
:1044E800BB42C9D12B4604F222249B78204605936F
:1044F80001F056F8034620461C4601F059F80346D9
:1045080001A92046019303F04BF9002007B0F0BD44
:104518005878B842C0D0B242BED158786045BBD1B5
:10452800CAE793F804E0BE45BAD1BBE75878B04271
:1045380094D195E7D979B942B8D19DE71879604502
:10454800B0D1B8E793F804C0B4458DD18EE7587858
:10455800B84285D1C7E7D979B1428BD18CE71879B0
:10456800B84283D1BEE700BFD4000024D0000024A5
:10457800826FD0F8083111684A682DE9F0439A1A19
:104588005C1E0646D0F80C012240C1B0191A11442D
:10459800B1FBF3F403FB1414A34248D3D6F810512B
:1045A800D5F80031D5F80401013BD5F804111B1AE0
:1045B800DBB2A34294BFCB180B19C5F80431D5F868
:1045C8000431B3F5807F05D9D5F80431A3F580739C
:1045D800C5F80431C6F80C21D5F8002104EB02080F
:1045E800B8F5807F24D9C2F58077A918D2F58072F2
:1045F80023D1BC4201D0E21B23D15FFA88F306F530
:104608008C79C5F80031D6F81C022718B7F5807FD9
:104618008CBFC0F580752546CDB9AC4201D0621B70
:104628001BD1FFB2C6F81C7241B0BDE8F083FEE7AB
:10463800A9182246002CE0D02746684609F024F83D
:10464800D7E729460DEB070009F01EF8D5E74844DF
:104658002A46694609F018F8DFE70DEB0501FFB2B5
:10466800484609F011F8C6F81C7241B0BDE8F0835D
:10467800F0B4244D8AB0064601AC0FCD0FC40FCD5F
:104688002F683568D6F88860019EB5420FC4276048
:1046980023D0029B9D4222D0039B9D4221D0049BA4
:1046A8009D4220D0059B9D421FD0069B9D421ED057
:1046B800079B9D421DD0089B9D421CD0099B9D4293
:1046C8001BD1082310494FF40F70002200FB03137D
:1046D80083F814210AB0F0BC70470023F2E70123E5
:1046E800F0E70223EEE70323ECE70423EAE70523D8
:1046F800E8E70623E6E70723E4E7002383F8143115
:10470800FFDE00BF34D90008F0A100242DE9F047EE
:104718009E4D92B0064609AC0FCD0FC40FCD2F6841
:1047280035680FC4099B27609D427ED00A9B9D4235
:104738007DD00B9B9D4200F022810C9B9D4200F096
:104748001C810D9B9D4200F016810E9B9D4200F03E
:1047580010810F9B9D4200F00A81109B9D4200F042
:104768000481119B9D4240F00C8108244FF40F7581
:10477800874F05FB04F507EB050898F8220200F0BF
:104788001FFF98F8200200F01BFFD8F82432082BEE
:1047980013D8DFE803F04E5C6A788694A2B005006F
:1047A8007C4BD3F8F42042F00802C3F8F420D3F885
:1047B800F43003F008030893089B4046FFF72CFEEB
:1047C800012811D04FF40F78734A08FB04F857F802
:1047D800083007EB0804934208D01A6842F0100228
:1047E8001A6012B0BDE8F087FFBEFEE700236B49F0
:1047F80029228C35C4F88C104FF480613D44C4F8EC
:104808009830C4F89C102846C4E924234FF48072D9
:10481800C4E92833C4E92B33C4F8A82002F0D0F83F
:104828008646002875D0FFBEFEE700249EE70124D7
:104838009CE7584BD3F8F02042F01002C3F8F02060
:10484800D3F8F03003F010030093009BB5E7514B09
:10485800D3F8E82042F40032C3F8E820D3F8E8306F
:1048680003F400330193019BA7E74A4BD3F8E820F0
:1048780042F48022C3F8E820D3F8E83003F4802318
:104888000293029B99E7434BD3F8E82042F40022B5
:10489800C3F8E820D3F8E83003F400230393039B1C
:1048A8008BE73C4BD3F8E82042F48012C3F8E820A9
:1048B800D3F8E83003F480130493049B7DE7354B69
:1048C800D3F8F02042F02002C3F8F020D3F8F030FB
:1048D80003F020030593059B6FE72E4BD3F8E820E0
:1048E80042F08042C3F8E820D3F8E83003F0804370
:1048F8000693069B61E7274BD3F8E82042F0004275
:10490800C3F8E820D3F8E83003F000430793079B87
:1049180053E7B56712A9D4F88CA009ADD4F82422BE
:10492800DAF80030DFF878C001EB4209C4F8C46057
:1049380023F00806BCE80F00DCF800C0CAF80060E5
:104948000FC57246A5F800C0714639F9240C01F06C
:1049580059FDD4F8243212AA02EB430333F9240C8C
:1049680001F08AFD57F8083037E70724FEE60624E9
:10497800FCE60524FAE60424F8E60324F6E6022415
:10498800F4E6002393F82232FFDE00BF34D9000892
:10499800F0A10024004402580010014088000240A1
:1049A80058D90008F0B5284F8BB0384606F09AFD64
:1049B8003C68E369DA0601D40BB0F0BD234E01ADC3
:1049C8000FCE0FC50FCE0FC5019B36689C422E60D7
:1049D80029D0029B9C4228D0039B9C4227D0049B51
:1049E8009C4226D0059B9C4225D0069B9C4224D005
:1049F800079B9C4223D0089B9C4222D0099B9C4247
:104A08000BD00020E369DB0603D4102323620BB02C
:104A1800F0BDFFF7ADFD3C68F7E708204FF40F73D2
:104A280003FB0070EEE70020F8E70120F6E702201C
:104A3800F4E70320F2E70420F0E70520EEE706207C
:104A4800ECE70720EAE700BFF0A1002434D900080A
:104A5800F0B5294F8BB007F50F7006F043FDD7F876
:104A68003C42E369DA0601D40BB0F0BD234E01AD38
:104A78000FCE0FC50FCE0FC5019B36689C422E6026
:104A88002AD0029B9C4229D0039B9C4228D0049B9D
:104A98009C4227D0059B9C4226D0069B9C4225D051
:104AA800079B9C4224D0089B9C4223D0099B9C4294
:104AB8000CD00020E369DB0603D4102323620BB07B
:104AC800F0BDFFF755FDD7F83C42F6E708204FF454
:104AD8000F7303FB0070EDE70020F8E70120F6E70D
:104AE8000220F4E70320F2E70420F0E70520EEE7D0
:104AF8000620ECE70720EAE7F0A1002434D90008F3
:104B0800F0B5294F8BB007F58F6006F0EBFCD7F8AE
:104B18007844E369DA0601D40BB0F0BD234E01AD49
:104B28000FCE0FC50FCE0FC5019B36689C422E6075
:104B38002AD0029B9C4229D0039B9C4228D0049BEC
:104B48009C4227D0059B9C4226D0069B9C4225D0A0
:104B5800079B9C4224D0089B9C4223D0099B9C42E3
:104B68000CD00020E369DB0603D4102323620BB0CA
:104B7800F0BDFFF7FDFCD7F87844F6E708204FF4BE
:104B88000F7303FB0070EDE70020F8E70120F6E75C
:104B98000220F4E70320F2E70420F0E70520EEE71F
:104BA8000620ECE70720EAE7F0A1002434D9000842
:104BB800F0B5294F8BB007F2B46006F093FCD7F834
:104BC800B446E369DA0601D40BB0F0BD234E01AD5B
:104BD8000FCE0FC50FCE0FC5019B36689C422E60C5
:104BE8002AD0029B9C4229D0039B9C4228D0049B3C
:104BF8009C4227D0059B9C4226D0069B9C4225D0F0
:104C0800079B9C4224D0089B9C4223D0099B9C4232
:104C18000CD00020E369DB0603D4102323620BB019
:104C2800F0BDFFF7A5FCD7F8B446F6E708204FF427
:104C38000F7303FB0070EDE70020F8E70120F6E7AB
:104C48000220F4E70320F2E70420F0E70520EEE76E
:104C58000620ECE70720EAE7F0A1002434D9000891
:104C6800F0B5294F8BB007F50F6006F03BFCD7F87D
:104C7800F048E369DA0601D40BB0F0BD234E01AD6C
:104C88000FCE0FC50FCE0FC5019B36689C422E6014
:104C98002AD0029B9C4229D0039B9C4228D0049B8B
:104CA8009C4227D0059B9C4226D0069B9C4225D03F
:104CB800079B9C4224D0089B9C4223D0099B9C4282
:104CC8000CD00020E369DB0603D4102323620BB069
:104CD800F0BDFFF74DFCD7F8F048F6E708204FF491
:104CE8000F7303FB0070EDE70020F8E70120F6E7FB
:104CF8000220F4E70320F2E70420F0E70520EEE7BE
:104D08000620ECE70720EAE7F0A1002434D90008E0
:104D1800F0B5294F8BB007F62C3006F0E3FBD7F837
:104D28002C4BE369DA0601D40BB0F0BD234E01AD7C
:104D38000FCE0FC50FCE0FC5019B36689C422E6063
:104D48002AD0029B9C4229D0039B9C4228D0049BDA
:104D58009C4227D0059B9C4226D0069B9C4225D08E
:104D6800079B9C4224D0089B9C4223D0099B9C42D1
:104D78000CD00020E369DB0603D4102323620BB0B8
:104D8800F0BDFFF7F5FBD7F82C4BF6E708204FF4FA
:104D98000F7303FB0070EDE70020F8E70120F6E74A
:104DA8000220F4E70320F2E70420F0E70520EEE70D
:104DB8000620ECE70720EAE7F0A1002434D9000830
:104DC800F0B5294F8BB007F6685006F08BFBD7F883
:104DD800684DE369DA0601D40BB0F0BD234E01AD8E
:104DE8000FCE0FC50FCE0FC5019B36689C422E60B3
:104DF8002AD0029B9C4229D0039B9C4228D0049B2A
:104E08009C4227D0059B9C4226D0069B9C4225D0DD
:104E1800079B9C4224D0089B9C4223D0099B9C4220
:104E28000CD00020E369DB0603D4102323620BB007
:104E3800F0BDFFF79DFBD7F8684DF6E708204FF463
:104E48000F7303FB0070EDE70020F8E70120F6E799
:104E58000220F4E70320F2E70420F0E70520EEE75C
:104E68000620ECE70720EAE7F0A1002434D900087F
:104E7800F0B5294F8BB007F6A47006F033FBD7F8CE
:104E8800A44FE369DA0601D40BB0F0BD234E01AD9F
:104E98000FCE0FC50FCE0FC5019B36689C422E6002
:104EA8002AD0029B9C4229D0039B9C4228D0049B79
:104EB8009C4227D0059B9C4226D0069B9C4225D02D
:104EC800079B9C4224D0089B9C4223D0099B9C4270
:104ED8000CD00020E369DB0603D4102323620BB057
:104EE800F0BDFFF745FBD7F8A44FF6E708204FF4CD
:104EF8000F7303FB0070EDE70020F8E70120F6E7E9
:104F08000220F4E70320F2E70420F0E70520EEE7AB
:104F18000620ECE70720EAE7F0A1002434D90008CE
:104F2800F0B5284F8BB0384606F0DCFA3C68E369E8
:104F3800DA0601D40BB0F0BD234E01AD0FCE0FC57C
:104F48000FCE0FC5019B36689C422E602AD0029B6B
:104F58009C4229D0039B9C4228D0049B9C4227D08A
:104F6800059B9C4226D0069B9C4225D0079B9C42D1
:104F780024D0089B9C4223D0099B9C420BD0002044
:104F8800E369DB0603D4102323620BB0F0BDFFF7FF
:104F9800EFFA3C68F7E708204FF40F720B4B02FB5F
:104FA8000030EDE70020F7E70120F5E70220F3E7FE
:104FB8000320F1E70420EFE70520EDE70620EBE703
:104FC8000720E9E7D0B3002434D90008F0A1002471
:104FD800014802F085B800BF7CA20024D1F804C0C3
:104FE8004FF40F732DE9F04703FB0CFADFF8F0904C
:104FF8000D4607460AEB09080E46BCF1080F08F5EE
:1050080008740FCDC7F800800FC495E8070084E83E
:10501800070003D8D8F82C32022B02D90120BDE8AA
:10502800F087D8F82822032AF8D8D8F830120229AD
:10503800F4D8D8F83442022CF0D825480131254F4D
:10504800002550F82C00890057F82370DFF894C029
:10505800214B4AF809004046B6695CF8222053F80B
:105068002430C8F81410C8F80460C8F80830C8F824
:105078002850C8E90327C8E90655C8E9085507F0C4
:105088002BFE0028CAD10146404607F07DFE0028C5
:10509800C4D10146404607F0CDFE0028BED14046A7
:1050A80007F054FE0028B9D10C4909EB0A034FF464
:1050B8008074C1F80401C8F81011C1F80001C8F8DB
:1050C8000841A3F81401C8F81C02C8F81802A6E79A
:1050D80020DB000844DB000860DB000818410030D2
:1050E800F0A1002450DB0008354B36481A883649B1
:1050F800F0B41E68354C9B784FEA164CE280237258
:10510800C280334C03723348CA80A1F803204B7124
:105118000B72E28030492372C2800372A4F8032024
:105128006371A0F803202D4C43712D482D4DCA8082
:10513800A1F803204B710B72E2802B492372C280C5
:105148002A4C03722A482B4F2E8085F802C0A5F8F6
:105158000320CA800B7228496B71EA802B72268063
:10516800264DA4F803206371E280068084F802C00B
:10517800237280F802C0224CA0F803204371C28039
:10518800037220480E80A7F803207B71FA803B72D7
:10519800A5F803206B71EA802B72A4F803206371D1
:1051A800E28081F802C0A1F803204B71CA800B721B
:1051B8002372A0F803204371C2800372F0BC7047C9
:1051C800D0000024580100247C010024640100243C
:1051D800700100249401002488010024280100247F
:1051E8001C01002430B60024400100240CB6002421
:1051F80024B60024A001002418B600244C01002481
:10520800C4000024B8000024704700BF08B500F0AF
:10521800D5FABDE8084001F0B5B900BF704700BF36
:1052280000F0D8BA00F0DCBA2DE9F04FCFB0044650
:105238004C2200210AA808F035FA2022002102A8F1
:1052480008F030FABC2200211EA808F02BFA022030
:1052580002F0A2FC23680022012B3DD0604B0225FE
:105268000192C821DA6A22F00102DA62DA6A03F5E9
:10527800113302F0010201929A6942F440429A61A4
:105288009B6903F440430193019B564B9A6992042E
:10529800FCD5554A022404204FF0010C936A2126BC
:1052A8004FF4803723F00303234393620523082236
:1052B8001590189300230AA81691CDF840C01794AA
:1052C80019941A92CDE91344CDE91B33CDE90A6745
:1052D80003F074F9C0B1FEE7424B04250092F021B7
:1052E8009A6942F440429A619A69A3F5113302F42B
:1052F80040420092DA6A42F00102DA62DB6A03F0A5
:1053080001030093009BC0E73F26032700220823E0
:10531800294602A8CDE90267CDE9042340264023A7
:105328004FF480624027CDE90823CDE9066703F0F2
:1053380085FC034600B1FEE78022022601270025EE
:1053480034924FF480723394802443924FF4805205
:105358004FF00C084FF008091EA8CDE93B334FF475
:10536800805335934FF4803346930623CDE9226763
:10537800CDE9244540F22716102704242025CDE93D
:1053880026234FF480620023CDE92867CDE92A451A
:10539800CDE92C230FF2400BDBE900AB00260227F6
:1053A80000244FF4803500224FF44013CDE91EABA2
:1053B800CDE92089CDE92E67CDE93045CDE93E23F9
:1053C80003F09CFE00B1FEE702F00CFC4FB0BDE814
:1053D800F08F00BFAFF300800F130F030100000030
:1053E800000400580048025800440258F0B5054629
:1053F8000C4685B00126D1E9000185E8030000F0DC
:10540800AFF92846FFF710FF002501F06FF84FF0BD
:105418004053384A684601934FF48073ADF80060F2
:10542800CDE9022301F084F84FF0404340F2011126
:10543800192268460193ADF80E108DF808208DF8F2
:1054480001608DF80D508DF80A5001F071F80420B4
:1054580001F05CF807F042FF07F0EAFD237913BB7F
:1054680063799BB1BFF34F8FBFF36F8F224B00223D
:10547800C3F85022BFF34F8FBFF36F8F5A6942F4BE
:1054880000325A61BFF34F8FBFF36F8F00220023A2
:1054980069461A48CDE9002307F0AEFE174807F021
:1054A80013FF05B0F0BD1449C1F88450BFF34F8F06
:1054B800D1F8800043F6E077C0F34E32C0F3C9005C
:1054C800520102EA0705034645EA8376013BC1F823
:1054D80060625E1CF8D1203A12F1200FF1D1BFF3BF
:1054E8004F8F4B6943F480334B61BFF34F8FBFF34A
:1054F8006F8FB5E70E00010300ED00E03CB6002415
:1055080003F0E8BC03480023034A0449036007F09A
:105518006BBF00BF3CB600240000002411520008F5
:1055280030B4194C0022194BD4F88810184841F4AB
:105538007001184DC4F888101C68174944F001041C
:105548001C601A611C68204018609A61DA611A624E
:105558009A62DA621A635A639A63DA631A645A645B
:10556800186820F4802018601A662B681940B1F179
:10557800005F02D2094B01221A60034B4FF0006210
:1055880030BC9A60704700BF00ED00E0004402584C
:105598007FEDF6EA0010005C0000FFFF0881005173
:1055A800024B027853F82200704700BF9CDB0008CA
:1055B800024B427833F81200704700BF7CDB0008CA
:1055C8008CB00A2814D8DFE800F01523313F4D5B72
:1055D8006977859306004D4BD3F8E02042F480624A
:1055E800C3F8E020D3F8E03003F480630B930B9BFF
:1055F8000CB07047454BD3F8E02042F00102C3F8E5
:10560800E020D3F8E03003F001030193019BEFE7BA
:105618003E4BD3F8E02042F00202C3F8E020D3F872
:10562800E03003F002030293029BE1E7374BD3F823
:10563800E02042F00402C3F8E020D3F8E03003F0A1
:1056480004030393039BD3E7304BD3F8E02042F0E5
:105658000802C3F8E020D3F8E03003F0080304930D
:10566800049BC5E7294BD3F8E02042F01002C3F8A9
:10567800E020D3F8E03003F010030593059BB7E76B
:10568800224BD3F8E02042F02002C3F8E020D3F800
:10569800E03003F020030693069BA9E71B4BD3F8E1
:1056A800E02042F04002C3F8E020D3F8E03003F0F5
:1056B80040030793079B9BE7144BD3F8E02042F085
:1056C8008002C3F8E020D3F8E03003F080030893A9
:1056D800089B8DE70D4BD3F8E02042F48072C3F8A5
:1056E800E020D3F8E03003F480730993099B7FE747
:1056F800064BD3F8E02042F40072C3F8E020D3F858
:10570800E03003F400730A930A9B71E700440258DF
:10571800704700BF0F4B1B780BB90120704710B5BD
:1057280004464FF47A700C4AB0FBF3F31068B0FBF0
:10573800F3F000F0C3FE0F2C00D808B1012010BD13
:10574800002221464FF0FF3000F05CFE034B0020A2
:105758001C6010BDB4010024AC010024B801002471
:1057680070B5124C032000F039FE114E03F0C6F953
:10577800A26910490346C2F303220F200E4D8A5C2A
:1057880002F01F02D3403360A26902408A5C02F033
:105798001F02D3402B60FFF7BDFF10B10124204644
:1057A80070BD0446FFF7B4FF204670BD00440258A0
:1057B800AC0100246CDB0008B0010024034A044B50
:1057C80011681B780B441360704700BF40B6002473
:1057D800B4010024014B1868704700BF40B600248C
:1057E80038B50446FFF7F6FF0546631C02D0044BA4
:1057F8001B781C44FFF7EEFF431BA342FAD338BDC6
:10580800B4010024014B1868000C70470010005CBC
:10581800704700BF806B08B5FFF7FAFF08BD00BFEF
:10582800836B5A6D12F0500F5A6D10B51DD119685F
:1058380042F400725A650A6812F0080FCA681BD051
:1058480012F4406F0DD1CA6894040AD45A6D22F438
:1058580080725A655A6DD10403D45A6D42F0010220
:105868005A651846FDF7FCF910BDD2060AD4DB6C60
:10587800BDE81040DB6C18479007E7D01846FDF7E5
:10588800EFF9F1E71846FDF791FA10BD806B08B5FE
:10589800436D43F040034365836D43F00403836520
:1058A800FDF784FA08BD00BFF0B5002283B001926D
:1058B80090F85020012A00F01B81034601201A6845
:1058C80083F850009468660700F189800C68C4F377
:1058D8001305002D40F08E80C4F3846C00FA0CF0A0
:1058E8004C681F26D569A7093440284302F13005C2
:1058F80007F00C07A640D0610CFA04F4785920EAA6
:105908000600204378519068450771D4956815F0D2
:10591800080548D10C6802F1140607208F684FEA81
:10592800D45CC4F304540CF0040C00FA04FE07FA27
:1059380004F4C64F5CF8060020EA0E0020434CF839
:105948000600386800F07040B0F1805F00F0C88051
:10595800D068D66810F0100F486940F0E980C6F3A7
:105968008206760000FA06F60F69042F00F0C3805D
:1059780002F16004086854F827C000F0F8400CF001
:10598800004C40EA0C00304344F827000E694F7E73
:1059980054F82600012F20F0004008BF4FF00045C2
:1059A800054344F826509068C40716D4CE680868A2
:1059B80006F01807A64CD2F8C050FC40C0F31307F5
:1059C800DFF8B8C2044025EA0705664544EA05043D
:1059D800C2F8C04046D0002816DB002003E05A6D0C
:1059E80042F020025A65002283F8502003B0F0BD2F
:1059F8009068D8E794FAA4F5B5FA85F5C4F3846CF1
:105A080005F01F04A0406BE792498A4200F0B68077
:105A180001F580718A4200F0B1808F4E8F4DA968E0
:105A2800B46801F0E076E44304F00104002C00F0CF
:105A3800B3808B4CA04200F0E6808A4CA04200F074
:105A48001F81894CA042C8D14902C6D482498A42E2
:105A5800C3D1AA68002022F0E072324342F48002E7
:105A6800AA60C0E7002F69D090FAA0F4B4FA84F4D1
:105A7800013404F01F04092C00F2A38090FAA0F46A
:105A8800B4FA84F490FAA0F50126B5FA85F5013444
:105A98003544A40605F01F0504F0F84406FA05F598
:105AA8002C4390FAA0F0B0FA80F0304400F01F00C8
:105AB80000EB400000052043C70D02F11405C0F3B8
:105AC80004504FF0070C07F004078E680CFA00FC2E
